:100000000C9438000C9455000C9455000C94550039
:100010000C9455000C9455000C9455000C946204FB
:100020000C9455000C9455000C9473030C945500DB
:100030000C9455000C940F040C943A040C94550045
:100040000C9455000C9455000C9455000C948204AB
:100050000C9455000C9455000C9455000C945500CC
:100060000C9455000C9455000C9455000C945500BC
:1000700011241FBECFEFD4E0DEBFCDBF12E0A0E061
:10008000B1E0E2EBF5E102C005900D92A435B107B5
:10009000D9F712E0A4E5B2E001C01D92AD3EB10770
:1000A000E1F70E94CE040C94D70A0C940000DF9371
:1000B000CF93CDB7DEB780E490E0FC01108289E2F7
:1000C00090E027E6FC01208380E490E026E8FC0134
:1000D00020838AE290E028E9FC012083CF91DF9120
:1000E0000895DF93CF930F92CDB7DEB789830000D9
:1000F0008BE290E0FC018081882F90E0807290700C
:100100000097B1F38CE290E02981FC0120830F90ED
:10011000CF91DF910895DF93CF93CDB7DEB787E41A
:1001200090E02EE0FC01208382E490E02BE9FC01CA
:1001300020838EE490E028E0FC0120838AE490E0B4
:10014000FC011182108288E490E0FC01118210828F
:100150008AE890E028E0FC01208386E890E0FC013A
:1001600011821082CF91DF910895DF93CF9300D059
:10017000CDB7DEB71A8219822CC0809142019091CE
:1001800043019C0189819A81880F991F835A9D4F51
:10019000FC013183208380914001909141019C01B9
:1001A00089819A81880F991F83549D4FFC01318367
:1001B000208389819A81880F991F83579D4F2CE254
:1001C00031E0FC013183208389819A8101969A83F1
:1001D000898389819A81883191057CF20F900F90F3
:1001E000CF91DF910895DF93CF93CDB7DEB789E547
:1001F00090E020E7FC0120838DE790E020E1FC0106
:10020000208388E590E020E1FC0120837894CF9161
:10021000DF910895DF93CF93CDB7DEB72B970FB65D
:10022000F894DEBF0FBECDBF89877B876A87CE017A
:10023000019624E431E048E0F90100802F5F3F4F50
:10024000FC010082019641504423B1F7898599272A
:1002500087FD909582349105E1F08334910524F473
:100260008134910541F03FC08334910501F184341C
:10027000910559F138C08BE390E02A853B85AE01AA
:100280004F5F5F4F240F351FF9012081FC01208350
:100290002AC088E390E02A853B85AE014F5F5F4F1F
:1002A000240F351FF9012081FC0120831CC085E348
:1002B00090E02A853B85AE014F5F5F4F240F351FCD
:1002C000F9012081FC0120830EC082E390E02A85A1
:1002D0003B85AE014F5F5F4F240F351FF901208131
:1002E000FC01208300002B960FB6F894DEBF0FBEF2
:1002F000CDBFCF91DF910895DF93CF9300D0CDB7DD
:10030000DEB79A8389838091590290915A020097AF
:10031000F9F48AE490E029813A81220F331F2357B0
:100320003D4FF90120813181FC013183208388E434
:1003300090E029813A81285F3F4F220F331F2357D6
:100340003D4FF90120813181FC01318320831EC0A2
:1003500088E490E029813A81220F331F23573D4FD3
:10036000F90120813181FC01318320838AE490E00E
:1003700029813A81285F3F4F220F331F23573D4F7A
:10038000F90120813181FC013183208386E890E0EE
:1003900029813A81205F3F4F220F331F23573D4F62
:1003A000F90120813181FC01318320830F900F906E
:1003B000CF91DF910895EF92FF920F931F93DF93F8
:1003C000CF9300D000D000D0CDB7DEB780915502DA
:1003D000829586958770882F90E09A838983809193
:1003E0005502282F30E089819A81880F991F8295C4
:1003F0009295907F9827807F9827A901481B590BD9
:10040000CA019C838B838B819C81880F991F8050AC
:100410009F4FFC01808191819C838B831E821D8272
:100420008B819C818E31910551F08F31910561F462
:1004300081E090E090935C0280935B0243C1109254
:100440005C0210925B023EC189819A8186309105DF
:1004500009F460C08730910509F4B4C08530910576
:1004600009F0F2C080915B0290915C02009799F0D4
:100470008B819C81880F991F83579D4FFC012081A0
:1004800031818B819C81880F991F835A9D4FFC017C
:100490003183208317C18091420190914301AA27A3
:1004A00097FDA095BA2FBC01CD010E94F0077B01FA
:1004B0008C0180915602882F90E0AA2797FDA09585
:1004C000BA2FBC01CD010E94F007DC01CB01BC01B9
:1004D000CD012CE53FE842E650E40E94C606DC016F
:1004E000CB019C01AD01C801B7010E946806DC0187
:1004F000CB01BC01CD010E94F204DC01CB019C01C7
:100500008B819C81880F991F835A9D4FFC013183F9
:100510002083D8C080915B0290915C02009799F093
:100520008B819C81880F991F83579D4FFC012081EF
:1005300031818B819C81880F991F83549D4FFC01D1
:1005400031832083BFC08091420190914301AA274B
:1005500097FDA095BA2FBC01CD010E94F0077B0149
:100560008C0180915602882F90E0AA2797FDA095D4
:10057000BA2FBC01CD010E94F007DC01CB01BC0108
:10058000CD012CE53FE842E650E40E94C606DC01BE
:10059000CB019C01AD01C801B7010E946806DC01D6
:1005A000CB01BC01CD010E94F204DC01CB019C0116
:1005B0008B819C81880F991F83549D4FFC0131834F
:1005C000208380C08091420190914301AA2797FD2A
:1005D000A095BA2FBC01CD010E94F0077B018C01D0
:1005E00080915602882F90E0AA2797FDA095BA2FF8
:1005F000BC01CD010E94F007DC01CB01BC01CD01A3
:100600002AE939E949E450E40E94C606DC01CB013D
:100610009C01AD01C801B7010E946806DC01CB0155
:10062000BC01CD010E945008DC01CB019E838D836B
:100630002D813E818B819C81880F991F83579D4F0F
:10064000FC01318320833EC08B819C81880F991FE0
:10065000835A9D4FFC012081318180915602682F81
:1006600070E08B819C81880F991F83549D4FFC0102
:10067000408151818B819C81880F991F835A9D4FA6
:10068000FC0180819181481B590B649FC001659FCB
:10069000900D749F900D11244FE750E0BA010E9415
:1006A0008C0AAB01CA01820F931F9E838D832D811B
:1006B0003E818B819C81880F991F83579D4FFC0140
:1006C00031832083109255021092560226960FB65F
:1006D000F894DEBF0FBECDBFCF91DF911F910F9178
:1006E000FF90EF9008951F920F920FB60F92112472
:1006F0002F933F934F935F936F937F938F939F932A
:10070000AF93BF93EF93FF93DF93CF93CDB7DEB754
:1007100080915702909158028830910521F41092EF
:100720005802109257028091570290915802880FF8
:10073000991F83579D4FFC01208131818091570281
:10074000909158020896880F991F83579D4FFC017E
:10075000808191818217930728F410925A02109297
:10076000590206C081E090E090935A0280935902AA
:1007700080915702909158020E947C018CE490E095
:10078000FC011182108288E890E0FC011182108245
:1007900080915B0290915C02009729F18091570251
:1007A000909158029C0181E4B9010E940A01809154
:1007B0005702909158029C0182E4B9010E940A01FB
:1007C0008EE490E023E0FC01208380915702909119
:1007D00058029C0183E4B9010E940A018AE890E072
:1007E00023E0FC01208380915702909158020196EA
:1007F0009093580280935702CF91DF91FF91EF9130
:10080000BF91AF919F918F917F916F915F914F9128
:100810003F912F910F900FBE0F901F9018951F9230
:100820000F920FB60F9211248F939F93EF93FF9324
:10083000DF93CF93CDB7DEB78091590290915A02E2
:10084000009729F48BE390E0FC01108204C088E358
:1008500090E0FC0110828EE490E0FC011082CF91C8
:10086000DF91FF91EF919F918F910F900FBE0F90AD
:100870001F9018951F920F920FB60F9211248F930D
:100880009F93EF93FF93DF93CF93CDB7DEB7809124
:10089000590290915A028130910529F48BE390E03E
:1008A000FC01108204C088E390E0FC011082CF912B
:1008B000DF91FF91EF919F918F910F900FBE0F905D
:1008C0001F9018951F920F920FB60F9211248F93BD
:1008D0009F93EF93FF93DF93CF93CDB7DEB78AE873
:1008E00090E0FC01108285E390E0FC011082CF9142
:1008F000DF91FF91EF919F918F910F900FBE0F901D
:100900001F9018951F920F920FB60F9211242F93DC
:100910003F934F935F936F937F938F939F93AF9387
:10092000BF93EF93FF93DF93CF93CDB7DEB7000074
:100930008BE290E0FC0180818823D4F78CE290E088
:10094000FC018081809354028091540288235CF0E2
:10095000809154028093560280915502882339F089
:100960000E94DB0104C08091540280935502809163
:1009700054020E947100CF91DF91FF91EF91BF91DE
:10098000AF919F918F917F916F915F914F913F9127
:100990002F910F900FBE0F901F901895DF93CF935C
:1009A000CDB7DEB70E94B5000E948B000E94F30015
:1009B0000E9457008AE390E02FEFFC01208387E339
:1009C00090E02FEFFC01208384E390E02FEFFC0107
:1009D000208300008BE290E0FC0180818823D4F723
:1009E0000000F8CFEF92FF920F931F937B018C01D1
:1009F00020E030E040E05FE40E94C00787FD11C0C6
:100A0000C801B70120E030E040E05FE40E949506B5
:100A10000E9450089B01AC0120503040404050489B
:100A200006C0C801B7010E9450089B01AC01B90182
:100A3000CA011F910F91FF90EF900895A0E0B0E0E0
:100A4000E4E2F5E00C94A40AFC01EA018081823022
:100A500008F438C1DB019C91923008F430C1843035
:100A600059F4943009F02EC1918111968C9111970F
:100A7000981709F021C126C1943009F420C19230A1
:100A8000B1F4823009F01EC1CA01AF0128E0DA01D9
:100A90000D90AD01DC010D92CD012150C1F7DB01BC
:100AA00011968C9111979181892389830AC1823093
:100AB00009F405C1C280D380DB0112966D907C9051
:100AC000139724813581468157811496ED90FD90CE
:100AD0000D911C911797C601861997095C0197FF24
:100AE00004C0AA24BB24A81AB90AB0E2AB16B10408
:100AF0000CF061C0181619066CF5370148010A2C74
:100B000004C096948794779467940A94D2F781E00E
:100B100090E0A0E0B0E00A2C04C0880F991FAA1F43
:100B2000BB1F0A94D2F70197A109B1098E219F2119
:100B3000A023B123EE24FF248701E3940097A105AD
:100B4000B10519F4EE24FF248701E628F7280829C7
:100B500019293CC00097D1F1CA0CDB1C39014A01AC
:100B60000A2C04C096948794779467940A94D2F7D9
:100B700081E090E0A0E0B0E00A2C04C0880F991F4B
:100B8000AA1FBB1F0A94D2F70197A109B1098223BA
:100B90009323A423B52321E030E040E050E0009708
:100BA000A105B10519F420E030E0A9012629372973
:100BB000482959290BC06C147D0424F4EE24FF2429
:100BC000870104C0630120E030E0A9018181FB01BD
:100BD0009181891709F445C0882349F0D801C701DC
:100BE000821B930BA40BB50B9C01AD0104C02E1905
:100BF0003F09400B510B57FD04C01982DB82CA82AA
:100C00000BC081E08983DB82CA8250954095309584
:100C100021953F4F4F4F5F4F2C833D834E835F8322
:100C20000DC0880F991FAA1FBB1F8C839D83AE83A5
:100C3000BF838A819B8101979B838A838C819D815D
:100C4000AE81BF819C01AD012150304040405040F9
:100C50002F3FEFEF3E07EFEF4E07EFE35E0708F39E
:100C60000BC08983DB82CA822E0D3F1D401F511F9E
:100C70002C833D834E835F8383E088832C813D8179
:100C80004E815F8157FF1DC0DA01C90181709070EC
:100C9000A070B0705695479537952795822B932B6A
:100CA000A42BB52B8C839D83AE83BF838A819B81CC
:100CB00001969B838A8305C0ECE4F1E003C0FB014D
:100CC00001C0FE01CF01CDB7DEB7EEE00C94C00A43
:100CD000A0E2B0E0EEE6F6E00C94AC0A69837A8319
:100CE0008B839C832D833E834F83588789E0E82E36
:100CF000F12CEC0EFD1ECE010196B7010E94CA092F
:100D00008E010F5E1F4FCE010596B8010E94CA09E1
:100D1000C701B801AE01475E5F4F0E941E050E94E9
:100D2000FC08A096E6E00C94C80AA0E2B0E0EBE96B
:100D3000F6E00C94AC0A69837A838B839C832D83C1
:100D40003E834F8358878E01075F1F4FCE01019668
:100D5000B8010E94CA0991E1E92EF12CEC0EFD1EAA
:100D6000CE010596B7010E94CA098A8991E08927B8
:100D70008A8BC801B701AE01475E5F4F0E941E0516
:100D80000E94FC08A096E6E00C94C80AA0E2B0E03D
:100D9000ECECF6E00C94A00A69837A838B839C8345
:100DA0002D833E834F835887CE010196BE01675F36
:100DB0007F4F0E94CA09CE010596BE016F5E7F4F2C
:100DC0000E94CA099985923078F089898230C0F0F2
:100DD000943019F4823041F4CBC0843019F492304D
:100DE00079F4C6C0923051F481E02A859A89291796
:100DF00009F480E08A87CE010996BCC0823051F4A4
:100E000081E02A859A89291709F480E08A8BCE012E
:100E10004196B0C06D847E848F849888ED88FE886A
:100E20000F89188DE0E2F0E080E090E0DC01AA2478
:100E3000BB24650120E030E0A901B301617070704E
:100E400061157105D1F02E0D3F1D401F511F150179
:100E50002601280E391E4A1E5B1E81E090E0A0E0AC
:100E6000B0E02E153F054007510718F080E090E0F4
:100E7000DC01820D931DA41DB51DAA0CBB1CCC1C4E
:100E8000DD1C17FF09C061E0262E312C412C512CAE
:100E9000A228B328C428D528319749F0EE0CFF1CAE
:100EA000001F111F9694879477946794C6CF6B891F
:100EB0007C89EB85FC856E0F7F1F6E5F7F4F7C8F7B
:100EC0006B8F61E0EA857A89E71709F460E06A8F41
:100ED0006B8D7C8D10C0FC01E170F070309729F0B3
:100EE00056954795379527955068B695A795979548
:100EF00087956F5F7F4FB7FDEECF0CC0880F991FAE
:100F0000AA1FBB1F57FD8160220F331F441F551FAF
:100F1000615070408030E0E09E07E0E0AE07E0E422
:100F2000BE0760F36B8F7C8F6FE7E62EF12C012DEF
:100F3000112DE822F9220A231B2360E4E616F104AE
:100F40000105110561F487FD0AC021153105410530
:100F5000510529F0805C9F4FAF4FBF4F80788D8F38
:100F60009E8FAF8FB8A383E0898FCE01499602C0D0
:100F70008CE491E00E94FC08A096E2E10C94BC0A8B
:100F8000A8E1B0E0E6ECF7E00C94AC0A69837A8360
:100F90008B839C832D833E834F8358878E01075F0D
:100FA0001F4FCE010196B8010E94CA0981E1E82EC7
:100FB000F12CEC0EFD1ECE010596B7010E94CA0968
:100FC0008985823040F08989823028F0C801B701D4
:100FD0000E94330A01C08FEF6896E6E00C94C80ABD
:100FE000A8E0B0E0E6EFF7E00C94AC0A7B018C01DE
:100FF00083E08983D801C7018827B7FD83959927A6
:10100000AA27BB27282F8A83E114F10401051105C3
:1010100019F482E0898337C08EE190E09C838B8352
:10102000222389F080E0E81680E0F80680E00807D7
:1010300080E8180769F110950095F094E094E11CA0
:10104000F11C011D111DED82FE820F831887C8015E
:10105000B7010E94A2089C012150304012161306CD
:1010600094F4022E04C0EE0CFF1C001F111F0A9402
:10107000D2F7ED82FE820F8318878EE190E0821B0B
:10108000930B9C838B83CE0101960E94FC0804C0C5
:1010900060E070E080E09FEC2896E6E00C94C80ADF
:1010A000ACE0B0E0E6E5F8E00C94B00A69837A833E
:1010B0008B839C83CE010196BE016B5F7F4F0E94A4
:1010C000CA098D81823081F1823070F1843021F43F
:1010D0008E81882369F10AC02F81388537FD24C0AD
:1010E0006E812F3131053CF0662311F120E030E0B4
:1010F00040E050E821C08EE190E0821B930B2985EF
:101100003A854B855C8504C056954795379527955C
:101110008A95D2F7662381F05095409530952195B8
:101120003F4F4F4F5F4F08C020E030E0A90104C09F
:101130002FEF3FEF4FEF5FE7B901CA012C96E2E0D6
:101140000C94CC0AAF92BF92CF92DF92EF92FF92B3
:101150000F931F937B018C0180E0E81680E0F80676
:1011600081E0080780E0180758F4EFEFEE16F1046D
:101170000105110509F090F480E090E0DC0117C052
:10118000F0E0EF16F0E0FF06F0E00F07F1E01F07D8
:1011900050F480E190E0A0E0B0E009C088E090E089
:1011A000A0E0B0E004C088E190E0A0E0B0E020E280
:1011B00030E040E050E0281B390B4A0B5B0B570135
:1011C000680104C0D694C794B794A7948A95D2F7BF
:1011D000D601C5018C5A9E4FFC018081281B310924
:1011E00041095109C9011F910F91FF90EF90DF90C4
:1011F000CF90BF90AF900895EF92FF920F931F93FF
:10120000CF93DF93FC012481358146815781618131
:101210008081823020F44061EFEFF0E0A3C08430A1
:1012200009F49BC0823009F492C0211531054105B3
:10123000510509F48FC00280F381E02D8FEFE23871
:10124000F8070CF05AC0C2E8DFEFCE1BDF0BCA3143
:10125000D1056CF579018A010C2E04C0169507950D
:10126000F794E7940A94D2F781E090E0A0E0B0E030
:101270000C2E04C0880F991FAA1FBB1F0A94D2F717
:101280000197A109B10982239323A423B52321E067
:1012900030E040E050E00097A105B10519F420E0EE
:1012A00030E0A9012E293F29402B512B03C020E01B
:1012B00030E0A901DA01C9018F779070A070B07099
:1012C00080349105A105B10539F427FF09C0205CE0
:1012D0003F4F4F4F5F4F04C0215C3F4F4F4F5F4F19
:1012E000E1E0F0E0203080E0380780E0480780E46B
:1012F000580728F5E0E0F0E022C0E038F1056CF591
:10130000E158FF4FDA01C9018F779070A070B0707B
:1013100080349105A105B10539F427FF09C0205C8F
:101320003F4F4F4F5F4F04C0215C3F4F4F4F5F4FC8
:1013300057FF05C05695479537952795319687E015
:1013400056954795379527958A95D1F70BC0E0E0DC
:10135000F0E005C0E0E0F0E005C0EFEFF0E020E0F5
:1013600030E0A9018E2F879588278795942F9F7746
:10137000679566276795E695E22EA92FA82BFE2F85
:10138000F62B622F732F8A2F9F2FCDB7DEB7E6E0A3
:101390000C94C80ADC01FB012C9111963C91119729
:1013A00012968C911297482F4F7750E0982F991FE3
:1013B0009927991F13966C911397862F880F892B65
:1013C00090E0661F6627661F6183009739F5211537
:1013D00031054105510511F482E029C082E89FEFF3
:1013E0009383828367E0220F331F441F551F6A9542
:1013F000D1F783E0808309C0220F331F441F551F9C
:1014000082819381019793838283203080E0380723
:1014100080E0480780E4580778F320C08F3F9105AB
:1014200079F4211531054105510519F484E08083D3
:10143000089544FF03C081E0808310C010820EC075
:101440008F5790409383828383E0808387E0220FCD
:10145000331F441F551F8A95D1F750642483358369
:10146000468357830895FC01DB019081923008F494
:1014700049C08C91823008F445C0943051F46181A8
:101480008430B1F511962C91119730E0261B31096B
:1014900041C0843021F0923041F48230B1F1119694
:1014A0008C9111978823A1F12DC06181823001F1C7
:1014B00011968C9111976817D9F422813381129675
:1014C0008D919C9113978217930794F028173907F1
:1014D000BCF0248135814681578114968D919D9170
:1014E0000D90BC91A02D82179307A407B50718F49F
:1014F000662341F00DC0281739074A075B0728F417
:10150000662331F021E030E005C020E030E002C089
:101510002FEF3FEFC9010895AA1BBB1B51E107C084
:10152000AA1FBB1FA617B70710F0A61BB70B881F73
:10153000991F5A95A9F780959095BC01CD01089502
:101540002F923F924F925F926F927F928F929F92D3
:10155000AF92BF92CF92DF92EF92FF920F931F93C1
:10156000CF93DF93CDB7DEB7CA1BDB0B0FB6F89472
:10157000DEBF0FBECDBF09942A88398848885F84B2
:101580006E847D848C849B84AA84B984C884DF8023
:10159000EE80FD800C811B81AA81B981CE0FD11D07
:1015A0000FB6F894DEBF0FBECDBFED010895F894DD
:0215B000FFCF6B
:1015B2000B000A00090008000F000E000D000C00CD
:1015C20003000200010000000700060005000400FD
:1015D200140015001600170010001100120013006D
:1015E200180019001A001B001C001D001E001F001D
:1015F2003E027C000102040810204080000000002E
:1016020000000000000102020303030304040404B7
:10161200040404040505050505050505050505057C
:10162200050505050606060606060606060606065C
:101632000606060606060606060606060606060648
:10164200060606060707070707070707070707072C
:101652000707070707070707070707070707070718
:101662000707070707070707070707070707070708
:1016720007070707070707070707070707070707F8
:1016820007070707080808080808080808080808DC
:1016920008080808080808080808080808080808C8
:1016A20008080808080808080808080808080808B8
:1016B20008080808080808080808080808080808A8
:1016C2000808080808080808080808080808080898
:1016D2000808080808080808080808080808080888
:1016E2000808080808080808080808080808080878
:1016F2000808080808080808080808080808080868
:0417020008080808C3
:00000001FF
